:040000002CEF3FF0B2
:107E580000017CEF3FF0026E02C0C9FF9EA6FED76C
:107E68009E96C9CF01F01200899A000E2FEC3FF0C0
:107E780003502FEC3FF0898A1200040E146E000E96
:107E8800106EFA0E0F6E66EC3FF0142EF8D712063D
:107E9800D8A0130612501310D8B41200EED793804E
:107EA8009392929A949E898A400EC76EC698C68A03
:107EB800C680C692C694C6969E96000EC26E0F0ED7
:107EC800C16E12000FC001F010C002F0036A046A0C
:107ED800030E056E000E066E000E076E000E086E8D
:107EE8009AEC3FF001500109116E112EFED71200D5
:107EF800F19E53EC3FF0000E166E000E156E16BE86
:107F080006D01650F8E1800E155CD8B0F4D715C02D
:107F180003F016C004F038EC3FF0030E136EE80EC1
:107F2800126E41EC3FF0154A162AE9D7000E0A6E88
:107F380008AE0AD0081E071E061E056C000E062293
:107F480007220822010E0A6E04AE0AD0041E031E80
:107F5800021E016C000E022203220422010E0A1ADC
:107F6800000E0B6E000E0C6E000E0D6E000E0E6EE7
:107F78000550061007100810D8B42AD0010E096E53
:107F880006D0D8900536063607360836092A08AED0
:107F9800F8D7D8900B360C360D360E360550015CE6
:107FA800065002580750035808500458D8A009D062
:107FB8000550015E0650025A0750035A0850045AE9
:107FC8000B80D8900832073206320532092EE1D7E5
:107FD8000A50D8B408D00E1E0D1E0C1E0B6C000ED5
:107FE8000C220D220E220BC001F00CC002F00DC0B5
:087FF80003F00EC004F01200BA
:020000040020DA
:08000000FFFFFFFFFFFFFFFF00
:020000040030CA
:0E000000030E3E0EFF8180FF0FC00FC00F40A9
:00000001FF
