:0400000080EF0BF092
:1008000000010000000A00000064000000E803008E
:100810000010270000A086010040420F008096983B
:100820000000E1F50500CA9A3B256C752E25362E91
:05083000366C750000AC
:100836001B0E286E000E296E7ED1250E3218D8B4F6
:1008460009D017C0D9FF18C0DAFF32C0DFFF174A38
:10085600182A71D1000E2F6E000E2E6E000E276E16
:1008660019C0F6FF1AC0F7FF0800F5502EEC0CF081
:10087600D8A032D0000E2F6E000E2E6E2EC001F0C4
:100886002FC002F0000E046E0A0E036EF7EC0BF09A
:1008960001C02EF002C02FF0D00E236EFF0E246E84
:1008A60019C0F6FF1AC0F7FF0800F550256E266A34
:1008B600235025262450262225502E2626502F2228
:1008C600194A1A2A19C0F6FF1AC0F7FF0800F55090
:1008D6002EEC0CF0D8B0D2D719C0F6FF1AC0F7FF2D
:1008E6000800F5502E0AD8A42DD0194A1A2A000E4F
:1008F600316E000E306E1BD030C001F031C002F0F8
:10090600000E046E0A0E036EF7EC0BF019C0F6FF2C
:100916001AC0F7FF0800F5500126000E0222D00E7D
:100926000124306EFF0E0220316E194A1A2A19C0B0
:10093600F6FF1AC0F7FF0800F5502EEC0CF0D8A011
:100946000BD0DAD7000E316E000E306E05D0278838
:1009560003D0C00E271214D019C0F6FF1AC0F7FF35
:10096600194A1A2A0800F5CF32F03250000AD8B4D4
:10097600EED06C0AD8B4EBD7190AD8B4EAD7DBD0D4
:1009860027A80ED028C0D9FF29C0DAFFDECF2AF06B
:10099600DECF2BF0DECF2CF0DECF2DF0040E0FD005
:1009A60028C0D9FF29C0DAFFDECF23F0DDCF24F03F
:1009B60023C02AF024C02BF02C6A2D6A020E2826AA
:1009C600000E292230503110D8A408D02A502B10FE
:1009D6002C102D10D8A402D0304A312A010E326EC6
:1009E6000A0E3218D8B418D03250040D010EF32472
:1009F600F66E080EF420F76E0900F5502A5C090021
:100A0600F5502B580900F5502C580900F5502D5873
:100A1600D8A002D0322AE4D7800E32BE7F0E236ED3
:100A26003050325C3150800A2358D8B003D030C0E1
:100A360032F010D03150800A236E3250305C800E76
:100A460032BE7F0E2358D8B005D03250306E316A90
:100A560030BE3106800E32BE7F0E236E2E50325CC3
:100A66002F50800A2358D8B007D032502E5E000E81
:100A760032BEFF0E2F5A04D0000E2F6E000E2E6EC1
:100A86002E502F10D8B44FD017C0D9FF18C0DAFF98
:100A9600200EDF6E174A182A2E06D8A02F06F0D78A
:100AA60030C023F031C024F0D89023362436D890B5
:100AB60023362436010E2324F66E080E2420F76E04
:100AC6000900F5CF05F00900F5CF06F00900F5CFCE
:100AD60007F00A00F5CF08F02AC001F02BC002F09B
:100AE6002CC003F02DC004F0D6EC09F001C00EF0C6
:100AF60002C00FF003C010F004C011F00A0E126E0F
:100B0600000E136E000E146E000E156E90EC0AF0B9
:100B16000E50300F326E17C0D9FF18C0DAFF32C040
:100B2600DFFF174A182A3006D8A031063028B8E168
:100B36003128D8A4B5D719C0F6FF1AC0F7FF194A4D
:100B46001A2A0800F5CF32F03250D8A476D617C04C
:100B5600D9FF18C0DAFF000EDF6E120024C028F09D
:100B6600296A2A6A2334283601E3298028502D6E03
:100B760027C028F0296A2A6A2634283601E3298004
:100B860028502C6E2D50D8B40BD02C502D5CD8B0DC
:100B96000ED02D5000082C24286E180E286407D07D
:100BA60025C022F026C023F027C024F012002C50C6
:100BB600D8B40BD02D502C5CD8B00ED02C500008D9
:100BC6002D24286E180E286407D022C022F023C0D8
:100BD60023F024C024F01200060E2B6E24BE2B8EAA
:100BE60027BE2B8C238EFF0E2216FF0E2316000E19
:100BF6002416268EFF0E2516FF0E2616000E271625
:100C06002C502D5CD8B01BD0D890253626362736EA
:100C16002C062D502C18D8B40DD02B062BC028F03E
:100C2600070E2816D8B406D0EFD7D8902432233230
:100C360022322D2A2C502D18D8B41FD0F6D72D507D
:100C46002C5CD8B01AD0D8902236233624362D06FE
:100C56002D502C18D8B40DD02B062BC028F0070E1B
:100C66002816D8B406D0EFD7D890273226322532A8
:100C76002C2A2C502D18D8A4F7D72BAE0CD0FF0E4B
:100C8600221AFF0E231AFF0E241A010E2226000E28
:100C96002322000E24222BAC0CD0FF0E251AFF0EA9
:100CA600261AFF0E271A010E2526000E2622000EF2
:100CB6002722000E2B6E2250252623502622245052
:100CC600272227AE0ED0FF0E251AFF0E261AFF0E7C
:100CD600271A010E2526000E2622000E2722010EB7
:100CE6002B6E25C001F026C002F027C003F02DC0F0
:100CF60004F02BC005F0DBEC08F001C022F002C0C6
:100D060023F003C024F01200600E416E000E426E06
:100D160036AE16D041C0D9FF42C0DAFF2D0EDF6EC7
:100D2600414A422A34C001F035C002F036C003F011
:100D36001CEC0CF001C034F002C035F003C036F0F4
:100D460034C018F035C019F036C01AF088EC07F038
:100D560018C03DF019C03EF01AC03FF01BC040F06D
:100D660034C02EF035C02FF036C030F03DC009F04B
:100D76003EC00AF03FC00BF040C00CF0C3EC0AF0D6
:100D860009C031F00AC032F00BC033F060EC0BF052
:100D96002EC034F02FC035F030C036F0240E0C6E65
:100DA600740E0D6E490E0E6E34C009F035C00AF091
:100DB60036C00BF00EEC07F009C018F00AC019F0A7
:100DC6000BC01AF088EC07F018C039F019C03AF0D9
:100DD6001AC03BF01BC03CF041C017F042C018F0EF
:100DE600290E196E080E1A6E3DC01BF03EC01CF08F
:100DF6003FC01DF040C01EF039C01FF03AC020F0C1
:100E06003BC021F03CC022F01BEC04F0600E346EB7
:100E1600000E356E12000BC00FF0106A116A0A340C
:100E26000F3601E310800F50126E1250D8A407D06F
:100E3600000E096E000E0A6E000E0B6E12000EC03A
:100E46000FF0106A116A0D340F3601E310800F504F
:100E5600176E1750D8A407D0000E096E000E0A6E42
:100E6600000E0B6E120017507B0F12260BC017F0E8
:100E76000E50171A800E17160A8E0D8EFF0E0C16C0
:100E8600FF0E0D16000E0E16000E136E000E146EDB
:100E9600000E156E070E166E09A006D00C5013260E
:100EA6000D5014220E501522D8900B320A320932F8
:100EB600D8900C360D360E36162EEED7090E166E57
:100EC60009A006D00C5013260D5014220E501522E0
:100ED600D8900B320A320932D890153214321332B6
:100EE600162EEED713C001F014C002F015C003F0A1
:100EF60012C004F017C005F0DBEC08F001C009F0E1
:100F060002C00AF003C00BF012001AC01CF01D6AE2
:100F16001E6A19341C3601E31D801C50266E2650AD
:100F2600D8A409D0000E186E000E196E000E1A6EA7
:100F3600000E1B6E1200170E1C6E18C01DF019C095
:100F46001EF01AC01FF01C28206E04D0D8901F3245
:100F56001E321D32202EFAD71D50216E198EFF0E1D
:100F66001816FF0E1916000E1A161850226E195072
:100F7600236E1A50246E256A8E0E265E26AE16D075
:100F86002650800A8F0FD8B009D0000E186E000EBA
:100F9600196E000E1A6E000E1B6E1200D8902532C6
:100FA600243223322232263EF9D715D0170E266474
:100FB6000FD0000E186E000E196E000E1A6E000E7F
:100FC6001B6E1200D8902236233624362536260686
:100FD6002650D8A4F7D72150D8B408D0251E241EF1
:100FE600231E226C000E23222422252222C018F062
:100FF60023C019F024C01AF025C01BF0120015C03A
:1010060019F01A6A1B6A1434193601E31A8019504A
:10101600206E2050D8A407D0000E136E000E146E5A
:10102600000E156E120018C019F01A6A1B6A1734E2
:10103600193601E31A801950216E2150D8A407D021
:10104600000E136E000E146E000E156E1200000ECA
:101056001D6E000E1E6E000E1F6E2150890F205E43
:1010660015C021F01850211A800E2116148EFF0E7D
:101076001316FF0E1416000E1516178EFF0E1616F3
:10108600FF0E1716000E1816180E1C6ED8901D3679
:101096001E361F361650135C175014581850155824
:1010A600D8A007D01650135E1750145A1850155A68
:1010B6001D80D8901336143615361C2EE7D71DC062
:1010C60001F01EC002F01FC003F020C004F021C0D2
:1010D60005F0DBEC08F001C013F002C014F003C009
:1010E60015F01200000E0A6E08AE0AD0081E071E82
:1010F600061E056C000E062207220822010E0A6E45
:1011060004AE0AD0041E031E021E016C000E02224B
:1011160003220422010E0A1A000E0B6E000E0C6E3C
:10112600000E0D6E000E0E6E05500610071008100C
:10113600D8B42AD0010E096E06D0D89005360636E8
:1011460007360836092A08AEF8D7D8900B360C367B
:101156000D360E360550015C0650025807500358EE
:1011660008500458D8A009D00550015E0650025A0E
:101176000750035A0850045A0B80D8900832073299
:1011860006320532092EE1D70A50D8B408D00E1E11
:101196000D1E0C1E0B6C000E0C220D220E220BC017
:1011A60001F00CC002F00DC003F00EC004F01200F6
:1011B6000450D8B405D0015002100310D8A40CD0A6
:1011C600000E016E000E026E000E036E1200042A5F
:1011D600D890033202320132000E0114066E000E60
:1011E6000214076EFE0E0314086E06500710081050
:1011F600D8B40CD0ECD7042A010E0126000E022228
:10120600000E0322D890033202320132000E01147E
:10121600066E000E0214076EFF0E0314086E0650CB
:1012260007100810D8B406D0E6D70406D8900136C1
:101236000236033602BE03D0020E0460F6D704A0BF
:10124600029ED8900432045003120550D8A4038E8F
:1012560001C001F002C002F003C003F0120020EE4C
:101266004FF010EE4AF0040EDBCFE3FFE806FCE297
:10127600000E2E6E4B0E2F6E000E306E000E316E6F
:1012860017EC0AF0030E136EE80E126E0AEC0CF061
:101296004A0E196E000E1A6E9BEC0BF00B0E136EB7
:1012A600B80E126E0AEC0CF00C0E3DEC0CF00D0EA6
:1012B6003DEC0CF0000E1E6E0A0E1D6EE2EC0BF0FD
:1012C6000B0E136EB80E126E0AEC0CF00C0E3DEC03
:1012D6000CF00D0E3DEC0CF0000E436E3F0E446E0E
:1012E600430E456EB5EC0BF00B0E136EB80E126E78
:1012F6000AEC0CF00C0E3DEC0CF00D0E3DEC0CF077
:10130600C7D70AC00EF00BC00FF00EC001F00FC019
:1013160002F00CC003F00DC004F0F1EC0AF001C0BD
:101326000EF002C00FF0084A092A0E500F10D8A47A
:10133600ECD708C0D9FF09C0DAFF000EDF6E080639
:10134600D8A009060AC001F00BC002F00CC003F0D9
:101356000DC004F03FEC0BF00150106E0AC001F016
:101366000BC002F00CC003F00DC004F0F1EC0AF063
:1013760001C00AF002C00BF0090E106402D0070E7D
:101386001026300E102608C0D9FF09C0DAFF10C09B
:10139600DFFF0806D8A009060A500B10D8A4D2D73A
:1013A600084A092A1200000E096E000E0A6E000E87
:1013B6000B6E000E0C6E0550061007100810D8B400
:1013C6002AD0010E0D6E06D0D890053606360736A1
:1013D60008360D2A08AEF8D7D89009360A360B36E5
:1013E6000C360550015C0650025807500358085049
:1013F6000458D8A009D00550015E0650025A07507D
:10140600035A0850045A0980D89008320732063227
:1014160005320D2EE1D709C001F00AC002F00BC05B
:1014260003F00CC004F01200949C948E2EC009F0B8
:101436002FC00AF030C00BF031C00CF054EC0AF0AB
:1014460009C016F00AC017F00BC018F01B0E136E79
:10145600370E146E490E156E02EC08F013C022F01A
:1014660014C023F015C024F0000E256E800E266EE3
:10147600BF0E276EB1EC05F022C032F023C033F068
:1014860024C034F032C018F033C019F034C01AF05A
:1014960088EC07F01850AF6E200EAC6E900EAB6E57
:1014A6001200000E126E8E0E116E0CAE11D00C1EB6
:1014B6000B1E0A1E096C000E0A220B220C22010EBC
:1014C600126E06D0D8900C320B320A320932112A2B
:1014D600000E09140D6E000E0A140E6E000E0B148B
:1014E6000F6EFF0E0C14106E0D500E100F10101014
:1014F600D8A4E8D709C001F00AC002F00BC003F077
:1015060011C004F012C005F0DBEC08F001C009F0D0
:1015160002C00AF003C00BF0120012501310141090
:101526001510D8B424D0010E166E06D0D8901236F7
:10153600133614361536162A15AEF8D712500E5C29
:1015460013500F581450105815501158D8A008D0E1
:1015560012500E5E13500F5A1450105A1550115A4D
:10156600D8901532143213321232162EE7D70EC027
:101576000EF00FC00FF010C010F011C011F01200E5
:101586008E0E116E06D0D8900C320B320A3209320A
:10159600112A000E09140D6E000E0A140E6E000EAE
:1015A6000B140F6EFF0E0C14106E0D500E100F1054
:1015B6001010D8A4E8D709C001F00AC002F00BC089
:1015C60003F011C004F0000E056EDBEC08F001C05C
:1015D60009F002C00AF003C00BF01200000E066EFE
:1015E600000E056E03500410D8B41CD0010E076E11
:1015F60004D0D89003360436072A04AEFAD7D8901A
:10160600053606360350015C04500258D8A005D0B2
:101616000350015E0450025A0580D890043203320A
:10162600072EEDD705C001F006C002F0120011C06A
:1016360017F012C018F014AE0CD011C0D9FF12C0AA
:10164600DAFF2D0EDF6E114A122A136C141ED8B063
:10165600142A11C008F012C009F013C00AF014C011
:101666000BF015C00CF016C00DF084EC09F017C095
:1016760011F018C012F0120003500410D8B418D09C
:10168600010E056E04D0D89003360436052A04AE42
:10169600FAD70350015C04500258D8A004D0035076
:1016A600015E0450025AD89004320332052EF1D757
:1016B60001C001F002C002F01200315032103310A6
:1016C600D8B406D0000E311A000E321A800E331A24
:1016D6002EC022F02FC023F030C024F031C025F0F8
:1016E60032C026F033C027F0B1EC05F022C02EF050
:1016F60023C02FF024C030F01200860EF66E180EAE
:10170600F76E000EF86E00EE4FF010EE05F00900D1
:10171600F5CFEEFFE550E150FAE100EE60F0110E74
:10172600EE6AE806FDE1000EF86E000132EF09F000
:10173600000E1C6E000E1B6E0BD01B501924D96EAA
:101746001C501A20DA6EDF503DEC0CF01B4A1C2AA6
:101756001B501924D96E1C501A20DA6EDF50D8B4EB
:101766001200EBD743C034F044C035F045C036F024
:10177600460E376E000E386E87EC06F034C048F021
:1017860035C049F048C019F049C01AF09BEC0BF07F
:1017960012000FC001F010C002F0036A046A030EC3
:1017A600056E000E066E000E076E000E086E75ECD6
:1017B60008F001500109116E112EFED712001F0EFE
:1017C600116E000E126E1DC013F01EC014F0000E36
:1017D600166E0A0E156E1AEC0BF011C019F012C037
:1017E6001AF09BEC0BF0120001500302F3CF05F048
:1017F600F4CF06F001500402F3500626025003020D
:10180600F350062605C001F006C002F01200040ED1
:10181600146E000E106EFA0E0F6ECCEC0BF0142E3A
:10182600F8D71206D8A0130612501310D8B4120017
:10183600EED7015002100310D8B406D0000E011ADC
:10184600000E021A800E031A01C001F002C002F057
:1018560003C003F01200036E000E026E3A0E036020
:1018660005D02F0E036402D0010E026E02C001F0F5
:1018760001301200016E9EA8FED701C0ADFF120016
:051886005465737400BD
:020000040020DA
:08000000FFFFFFFFFFFFFFFF00
:020000040030CA
:0E000000030E3E0EFF8180FF0FC00FC00F40A9
:00000001FF
