:040000004CEF3FF092
:107E9800000177EF3FF0040E146E000E106EFA0E1C
:107EA8000F6E61EC3FF0142EF8D71206D8A0130617
:107EB80012501310D8B41200EED70FC001F010C042
:107EC80002F0036A046A030E056E000E066E000EC9
:107ED800076E000E086E9AEC3FF001500109116E12
:107EE800112EFED712009494950ECB6E320EBE6EF4
:107EF800000ECA6E0C0EBD6E000ECC6ECA84000E4B
:107F0800166E000E156E16BE06D01650F8E1650EF8
:107F1800155CD8B0F4D715C0BEFF030E136EE80E7B
:107F2800126E4FEC3FF0154A162AEDD7000E0A6E76
:107F380008AE0AD0081E071E061E056C000E062293
:107F480007220822010E0A6E04AE0AD0041E031E80
:107F5800021E016C000E022203220422010E0A1ADC
:107F6800000E0B6E000E0C6E000E0D6E000E0E6EE7
:107F78000550061007100810D8B42AD0010E096E53
:107F880006D0D8900536063607360836092A08AED0
:107F9800F8D7D8900B360C360D360E360550015CE6
:107FA800065002580750035808500458D8A009D062
:107FB8000550015E0650025A0750035A0850045AE9
:107FC8000B80D8900832073206320532092EE1D7E5
:107FD8000A50D8B408D00E1E0D1E0C1E0B6C000ED5
:107FE8000C220D220E220BC001F00CC002F00DC0B5
:087FF80003F00EC004F01200BA
:020000040020DA
:08000000FFFFFFFFFFFFFFFF00
:020000040030CA
:0E000000030E3E0EFF8180FF0FC00FC00F40A9
:00000001FF
