:040000000BEF00F012
:100008001182FACF01F0FBCF02F00DED00F067EF9F
:1000180000F00600E9CF03F0EACF04F0E1CF05F0E5
:10002800E2CF06F0D9CF07F0DACF08F0F3CF09F026
:10003800F4CF0AF0F6CF0BF0F7CF0CF0F8CF0DF0B5
:10004800F5CF0EF0F294000ED76E000ED66E0F4A62
:10005800102AB70E0F181010D8A406D08C80000EE6
:10006800106E000E0F6E01D08C900EC0F5FF0DC003
:10007800F8FF0CC0F7FF0BC0F6FF0AC0F4FF09C079
:10008800F3FF08C0DAFF07C0D9FF06C0E2FF05C0CA
:10009800E1FF04C0EAFF03C0E9FF02C0FBFF01C0A3
:1000A800FAFF119211009590D59AD596D580D582F0
:1000B800D584000ED76E000ED66ED08EF28EF28CDE
:1000C800F28AF2941200106A0F6A119011920001DC
:0A00D8006EEF00F057EC00F0FFD7C8
:020000040020DA
:08000000FFFFFFFFFFFFFFFF00
:020000040030CA
:0E000000030E3E0EFF8180FF0FC00FC00F40A9
:00000001FF
