:04000000C2EF3FF01C
:107F84000001E9EF3FF0D6CF01F00150120001509B
:107F94000109036E032EFED712009590D58AD5866B
:107FA400000ED76E000ED66E1200040E066E000E82
:107FB400026EFA0E016EC9EC3FF0062EF8D70406E5
:107FC400D8A0050604500510D8B41200EED7CFECA3
:107FD4003FF0C5EC3FF0076E050E0718D8A40CD08F
:107FE4008C80070E056ED00E046ED7EC3FF0000EA9
:0C7FF400D76E000ED66EEDD78C90EBD748
:020000040020DA
:08000000FFFFFFFFFFFFFFFF00
:020000040030CA
:0E000000030E3E0EFF8180FF0FC00FC00F40A9
:00000001FF
