:040000000BEF00F012
:100008001E82FACF08F0FBCF09F00DED00F0B2EF39
:1000180000F00600E9CF0AF0EACF0BF0E1CF0CF0D0
:10002800E2CF0DF0D9CF0EF0DACF0FF0F3CF10F00A
:10003800F4CF11F0F6CF12F0F7CF13F0F8CF14F099
:10004800F5CF15F0F0A226D0000E176E000E166E32
:1000580017BE06D017501DE10B0E165CD8B019D08C
:100068008CA002D0010E01D0000EFF0A076E8C5042
:100078000718FE0B07188C6E000E056EFA0E046E3C
:100088007EEC00F0164A172A17BEEAD7175001E18E
:10009800E3D7F09215C0F5FF14C0F8FF13C0F7FFBF
:1000A80012C0F6FF11C0F4FF10C0F3FF0FC0DAFF53
:1000B8000EC0D9FF0DC0E2FF0CC0E1FF0BC0EAFF84
:1000C8000AC0E9FF09C0FBFF08C0FAFF1E92110031
:1000D800040E1D6E000E196EFA0E186EA6EC00F0D6
:1000E8001D2EF8D71B06D8A01C061B501C10D8B410
:1000F8001200EED7040E066E000E026EFA0E016EA6
:10010800ACEC00F0062EF8D70406D8A0050604507B
:100118000510D8B41200EED79CEC00F08C90030EBA
:100128001C6EE80E1B6E6CEC00F003008C80FDD793
:1001380095909384F28EF28CD08EF198F088F0929C
:10014800F09E1200185001091A6E1A2EFED71200DE
:1001580001500109036E032EFED712001E901E9255
:06016800000190EF00F021
:020000040020DA
:08000000FFFFFFFFFFFFFFFF00
:020000040030CA
:0E000000030E3E0EFF8180FF0FC00FC00F40A9
:00000001FF
