:040000009BEF08F07A
:1008000000010000000A00000064000000E803008E
:100810000010270000A086010040420F008096983B
:100820000000E1F50500CA9A3B256C752E25362E91
:05083000366C750000AC
:1008360024C028F0296A2A6A2334283601E329804D
:1008460028502D6E27C028F0296A2A6A26342836B1
:1008560001E3298028502C6E2D50D8B40BD02C5093
:100866002D5CD8B00ED02D5000082C24286E180E02
:10087600286407D025C022F026C023F027C024F024
:1008860012002C50D8B40BD02D502C5CD8B00ED002
:100896002C5000082D24286E180E286407D022C07C
:1008A60022F023C023F024C024F01200060E2B6E83
:1008B60024BE2B8E27BE2B8C238EFF0E2216FF0EF8
:1008C6002316000E2416268EFF0E2516FF0E26165C
:1008D600000E27162C502D5CD8B01BD0D89025368C
:1008E600263627362C062D502C18D8B40DD02B06BC
:1008F6002BC028F0070E2816D8B406D0EFD7D8900C
:100906002432233222322D2A2C502D18D8B41FD04F
:10091600F6D72D502C5CD8B01AD0D8902236233674
:1009260024362D062D502C18D8B40DD02B062BC0EE
:1009360028F0070E2816D8B406D0EFD7D89027325D
:10094600263225322C2A2C502D18D8A4F7D72BAEB8
:100956000CD0FF0E221AFF0E231AFF0E241A010EC8
:100966002226000E2322000E24222BAC0CD0FF0ED2
:10097600251AFF0E261AFF0E271A010E2526000E2F
:100986002622000E2722000E2B6E225025262350EB
:1009960026222450272227AE0ED0FF0E251AFF0E40
:1009A600261AFF0E271A010E2526000E2622000EF5
:1009B6002722010E2B6E25C001F026C002F027C0AB
:1009C60003F02DC004F02BC005F044EC06F001C086
:1009D60022F002C023F003C024F0120003C005F089
:1009E600066A076A0234053601E3068005500F6E73
:1009F6000F50D8A409D0000E016E000E026E000E34
:100A0600036E000E046E1200170E056E01C006F08E
:100A160002C007F003C008F00528096E04D0D8907C
:100A2600083207320632092EFAD706500A6E028EAF
:100A3600FF0E0116FF0E0216000E031601500B6E76
:100A460002500C6E03500D6E0E6A8E0E0F5E0FAEC8
:100A560016D00F50800A8F0FD8B009D0000E016E45
:100A6600000E026E000E036E000E046E1200D89089
:100A76000E320D320C320B320F3EF9D715D0170E4F
:100A86000F640FD0000E016E000E026E000E036E94
:100A9600000E046E1200D8900B360C360D360E364C
:100AA6000F060F50D8A4F7D70A50D8B408D00E1E98
:100AB6000D1E0C1E0B6C000E0C220D220E220BC0FE
:100AC60001F00CC002F00DC003F00EC004F01200DD
:100AD60015C019F01A6A1B6A1434193601E31A8014
:100AE6001950206E2050D8A407D0000E136E000EA9
:100AF600146E000E156E120018C019F01A6A1B6AE1
:100B06001734193601E31A801950216E2150D8A4E2
:100B160007D0000E136E000E146E000E156E120036
:100B2600000E1D6E000E1E6E000E1F6E2150890FE8
:100B3600205E15C021F01850211A800E2116148E41
:100B4600FF0E1316FF0E1416000E1516178EFF0E47
:100B56001616FF0E1716000E1816180E1C6ED890D5
:100B66001D361E361F361650135C17501458185073
:100B76001558D8A007D01650135E1750145A18509F
:100B8600155A1D80D8901336143615361C2EE7D705
:100B96001DC001F01EC002F01FC003F020C004F00B
:100BA60021C005F044EC06F001C013F002C014F0B9
:100BB60003C015F01200000E0A6E08AE0AD0081E19
:100BC600071E061E056C000E062207220822010ECD
:100BD6000A6E04AE0AD0041E031E021E016C000E2D
:100BE600022203220422010E0A1A000E0B6E000EC8
:100BF6000C6E000E0D6E000E0E6E055006100710E0
:100C06000810D8B42AD0010E096E06D0D890053641
:100C1600063607360836092A08AEF8D7D8900B36B6
:100C26000C360D360E360550015C0650025807503C
:100C3600035808500458D8A009D00550015E065044
:100C4600025A0750035A0850045A0B80D8900832AB
:100C5600073206320532092EE1D70A50D8B408D039
:100C66000E1E0D1E0C1E0B6C000E0C220D220E22EB
:100C76000BC001F00CC002F00DC003F00EC004F072
:100C860012000450D8B405D0015002100310D8A4A5
:100C96000CD0000E016E000E026E000E036E1200E6
:100CA600042AD890033202320132000E0114066E75
:100CB600000E0214076EFE0E0314086E065007108F
:100CC6000810D8B40CD0ECD7042A010E0126000E69
:100CD6000222000E0322D890033202320132000EA5
:100CE6000114066E000E0214076EFF0E0314086E42
:100CF600065007100810D8B406D0E6D70406D890D8
:100D060001360236033602BE03D0020E0460F6D761
:100D160004A0029ED8900432045003120550D8A4B1
:100D2600038E01C001F002C002F003C003F01200FE
:100D36000AC00EF00BC00FF00EC001F00FC002F09B
:100D46000CC003F00DC004F0D5EC07F001C00EF0A6
:100D560002C00FF0084A092A0E500F10D8A4ECD78B
:100D660008C0D9FF09C0DAFF000EDF6E0806D8A05A
:100D760009060AC001F00BC002F00CC003F00DC05A
:100D860004F023EC08F00150106E0AC001F00BC00D
:100D960002F00CC003F00DC004F0D5EC07F001C062
:100DA6000AF002C00BF0090E106402D0070E1026DE
:100DB600300E102608C0D9FF09C0DAFF10C0DFFFC9
:100DC6000806D8A009060A500B10D8A4D2D7084A9C
:100DD600092A1200949C948E2EC009F02FC00AF0A6
:100DE60030C00BF031C00CF067EC07F009C016F00C
:100DF6000AC017F00BC018F01B0E136E370E146ED8
:100E0600490E156E6BEC05F013C022F014C023F0EA
:100E160015C024F0000E256E800E266EBF0E276EBE
:100E26001BEC04F022C032F023C033F024C034F0AF
:100E360032C001F033C002F034C003F0F1EC04F02C
:100E46000150AF6E200EAC6E900EAB6E120001C05C
:100E560003F0D8900336D89003363C0E0316C250E2
:100E6600C30B0310C26EC2A203D0036A032A01D0C9
:100E7600036A010E046E032A02D0D8900436032EAC
:100E8600FCD7C2A003D0056A052A01D0056A010E67
:100E9600066E052A02D0D8900636052EFCD70650D7
:100EA6000410C212C2B2FED7C350C4CF03F0046A04
:100EB60003C004F0036A0310076E0450086E07C0EF
:100EC60001F008C002F01200000E126E8E0E116EB6
:100ED6000CAE11D00C1E0B1E0A1E096C000E0A2247
:100EE6000B220C22010E126E06D0D8900C320B3259
:100EF6000A320932112A000E09140D6E000E0A1468
:100F06000E6E000E0B140F6EFF0E0C14106E0D50AD
:100F16000E100F101010D8A4E8D709C001F00AC0AF
:100F260002F00BC003F011C004F012C005F044EC4F
:100F360006F001C009F002C00AF003C00BF012006F
:100F4600A8EC08F0030E136EE80E126E89EC08F09A
:100F5600000E2E6E4B0E2F6E000E306E000E316E92
:100F6600EDEC06F0030E136EE80E126E89EC08F037
:100F7600000E026E000E016E2AEC07F001C035F07D
:100F860002C036F035C01DF036C01EF074EC08F015
:100F96000B0E136EB80E126E89EC08F00C0EB2EC46
:100FA60008F0E6D7000E066E000E056E035004101C
:100FB600D8B41CD0010E076E04D0D8900336043680
:100FC600072A04AEFAD7D890053606360350015CD8
:100FD60004500258D8A005D00350015E0450025AAE
:100FE6000580D89004320332072EEDD705C001F0F4
:100FF60006C002F0120011C017F012C018F014AEAD
:101006000CD011C0D9FF12C0DAFF2D0EDF6E114AC7
:10101600122A136C141ED8B0142A11C008F012C07C
:1010260009F013C00AF014C00BF015C00CF016C07E
:101036000DF09BEC06F017C011F018C012F012006C
:1010460003500410D8B418D0010E056E04D0D89001
:1010560003360436052A04AEFAD70350015C045061
:101066000258D8A004D00350015E0450025AD8900A
:1010760004320332052EF1D701C001F002C002F09E
:101086001200000E1C6E000E1B6E0BD01B50192496
:10109600D96E1C501A20DA6EDF50B2EC08F01B4AEB
:1010A6001C2A1B501924D96E1C501A20DA6EDF50E8
:1010B600D8B41200EBD70FC001F010C002F0036ADB
:1010C600046A030E056E000E066E000E076E000E15
:1010D600086EDEEC05F001500109116E112EFED7E7
:1010E60012001F0E116E000E126E1DC013F01EC0F0
:1010F60014F0000E166E0A0E156EFEEC07F011C007
:1011060019F012C01AF044EC08F01200040E146E26
:10111600000E106EFA0E0F6E5EEC08F0142EF8D765
:101126001206D8A0130612501310D8B41200EED728
:1011360000EE37F0110EEE6AE806FDE1000EF86EDD
:10114600080EF76E0001A3EF07F092680E0EC16E4F
:10115600920EC06E000EC46E000EC36E1200016EBB
:0A1166009EA8FED701C0ADFF1200E5
:020000040020DA
:08000000FFFFFFFFFFFFFFFF00
:020000040030CA
:0E000000030E3E0EFF8180FF0FC00FC00F40A9
:00000001FF
