:040000000BEF00F012
:100008001882FACF08F0FBCF09F00DED00F08EEF63
:1000180000F00600E9CF0AF0EACF0BF0E1CF0CF0D0
:10002800E2CF0DF0D9CF0EF0DACF0FF0F3CF10F00A
:10003800F4CF11F0F6CF12F0F7CF13F0F8CF14F099
:10004800F5CF15F0F0A226D0000E176E000E166E32
:1000580017BE06D017501DE10B0E165CD8B019D08C
:100068008CA002D0010E01D0000EFF0A076E8C5042
:100078000718FE0B07188C6E000E056EFA0E046E3C
:100088006CEC00F0164A172A17BEEAD7175001E1A0
:10009800E3D7F09215C0F5FF14C0F8FF13C0F7FFBF
:1000A80012C0F6FF11C0F4FF10C0F3FF0FC0DAFF53
:1000B8000EC0D9FF0DC0E2FF0CC0E1FF0BC0EAFF84
:1000C8000AC0E9FF09C0FBFF08C0FAFF1892110037
:1000D800040E066E000E026EFA0E016E88EC00F039
:1000E800062EF8D70406D8A0050604500510D8B483
:1000F8001200EED795909384F28EF28CD08EF19800
:10010800F088F092F09E120001500109036E032E50
:10011800FED7120018901892000193EF00F07EECC1
:0601280000F08C90FFD7EF
:020000040020DA
:08000000FFFFFFFFFFFFFFFF00
:020000040030CA
:0E000000030E3E0EFF8180FF0FC00FC00F40A9
:00000001FF
