:0400000088EF33F062
:1066C4009EA6FED79E961200C584C5B4FED79E969C
:1066D400C7501200016E9EA8FED701C0ADFF120084
:1066E400016E01C0C9FF62EC33F0C5AC02D0010EEB
:1066F4001200020E1200026EC580C5B0FED79E962F
:10670400C7A61200025072EC33F0120000EE4FF0F4
:10671400110EEE6AE806FDE1000EF86E000197EF37
:106724003BF093809382500EC76E280EC66E000E07
:10673400C56E770EC86E9D869E961200036E780E07
:106744007DEC33F0000E72EC33F0035072EC33F056
:1067540066EC33F01200036E000E026E3A0E036014
:1067640005D02F0E036402D0010E026E02C001F0A8
:1067740001301200015002100310D8B406D0000EEC
:10678400011A000E021A800E031A01C001F002C0A1
:1067940002F003C003F01200040E146E000E106E1B
:1067A400FA0E0F6EF3EC33F0142EF8D71206D8A0BD
:1067B400130612501310D8B41200EED7015003027E
:1067C400F3CF05F0F4CF06F001500402F35006268F
:1067D40002500302F350062605C001F006C002F081
:1067E40012000FC001F010C002F0036A046A030E25
:1067F400056E000E066E000E076E000E086E6DEC40
:1068040038F001500109116E112EFED71200066EE8
:106814000650B00FA0EC33F00450080DF3500F0BEA
:10682400A0EC33F00450080D040E056EF434F43279
:10683400F332052EFBD7F3500F0B100FA0EC33F0FF
:106844001200356E210E116E000E126E35C013F05B
:10685400146A000E166E0A0E156EBFEC34F0210E8B
:106864001F6E000E206EE4EC34F0F20E1F6E7F0EED
:10687400206EE4EC34F0120043C034F044C035F030
:1068840045C036F0460E376E000E386E3AEC3AF0DC
:1068940034C048F035C049F048C01FF049C020F06A
:1068A400E4EC34F0F20E1F6E7F0E206EE4EC34F054
:1068B4001200315032103310D8B406D0000E311A01
:1068C400000E321A800E331A2EC022F02FC023F08D
:1068D40030C024F031C025F032C026F033C027F098
:1068E400C1EC3AF022C02EF023C02FF024C030F0C7
:1068F400120003500410D8B418D0010E056E04D051
:10690400D89003360436052A04AEFAD70350015C46
:1069140004500258D8A004D00350015E0450025A17
:10692400D89004320332052EF1D701C001F002C021
:1069340002F01200000E206E000E1F6E20501CE1AB
:10694400080E1F5CD8B01200000E226E000E216EDD
:1069540022500FE1100E215CD8B00BD021C004F0FE
:106964001F5009EC34F0200EC2EC37F0214A222AE1
:10697400EFD71F4A202AE2D7120011C017F012C025
:1069840018F014AE0CD011C0D9FF12C0DAFF2D0ECE
:10699400DF6E114A122A136C141ED8B0142A11C0C7
:1069A40008F012C009F013C00AF014C00BF015C0AF
:1069B4000CF016C00DF070EC37F017C011F018C0D1
:1069C40012F0120014D01FC0F6FF20C0F7FFF86ABF
:1069D400070EF76403D00800F55005D0F6CFD9FFB1
:1069E400F7CFDAFFDF50C2EC37F01F4A202A1FC06E
:1069F400F6FF20C0F7FFF86A070EF76403D008001B
:106A0400F55005D0F6CFD9FFF7CFDAFFDF500009F4
:106A1400D8B41200D8D7000E066E000E056E0350CF
:106A24000410D8B41CD0010E076E04D0D8900336DD
:106A34000436072A04AEFAD7D89005360636035032
:106A4400015C04500258D8A005D00350015E0450E4
:106A5400025A0580D89004320332072EEDD705C0C0
:106A640001F006C002F012008E0E116E06D0D8900E
:106A74000C320B320A320932112A000E09140D6E3F
:106A8400000E0A140E6E000E0B140F6EFF0E0C1483
:106A9400106E0D500E100F101010D8A4E8D709C0B6
:106AA40001F00AC002F00BC003F011C004F0000EA4
:106AB400056E16EC38F001C009F002C00AF003C0FC
:106AC4000BF012001250131014101510D8B424D067
:106AD400010E166E06D0D8901236133614361536BB
:106AE400162A15AEF8D712500E5C13500F581450D6
:106AF400105815501158D8A008D012500E5E1350DB
:106B04000F5A1450105A1550115AD8901532143285
:106B140013321232162EE7D70EC00EF00FC00FF04C
:106B240010C010F011C011F01200000E076E000E1C
:106B3400066E1AD006500224046E07500320056E18
:106B440004C0F6FF05C0F7FFF86A070EF76403D028
:106B54000800F55005D0F6CFD9FFF7CFDAFFDF50A4
:106B64006CEC33F0064A072A06500224046E0750E0
:106B74000320056E04C0F6FF05C0F7FFF86A070E90
:106B8400F76403D00800F55005D0F6CFD9FFF7CF4E
:106B9400DAFFDF500009D8B41200CCD7000E126E11
:106BA4008E0E116E0CAE11D00C1E0B1E0A1E096C3B
:106BB400000E0A220B220C22010E126E06D0D8906F
:106BC4000C320B320A320932112A000E09140D6EEE
:106BD400000E0A140E6E000E0B140F6EFF0E0C1432
:106BE400106E0D500E100F101010D8A4E8D709C065
:106BF40001F00AC002F00BC003F011C004F012C08F
:106C040005F016EC38F001C009F002C00AF003C028
:106C14000BF01200949C948E2EC009F02FC00AF041
:106C240030C00BF031C00CF0D0EC35F009C016F0D8
:106C34000AC017F00BC018F01B0E136E370E146E3B
:106C4400490E156ED3EC38F013C022F014C023F0B3
:106C540015C024F0000E256E800E266EBF0E276E22
:106C6400C1EC3AF022C032F023C033F024C034F037
:106C740032C018F033C019F034C01AF0C0EC39F047
:106C84001850AF6E200EAC6E900EAB6E1200000E5C
:106C9400096E000E0A6E000E0B6E000E0C6E05508F
:106CA400061007100810D8B42AD0010E0D6E06D0B5
:106CB400D89005360636073608360D2A08AEF8D7BA
:106CC400D89009360A360B360C360550015C06504E
:106CD40002580750035808500458D8A009D005504A
:106CE400015E0650025A0750035A0850045A09809C
:106CF400D89008320732063205320D2EE1D709C08A
:106D040001F00AC002F00BC003F00CC004F0120042
:106D140003AE16D001C007F002C008F003C009F0AA
:106D2400071E081E091E072A000E08220922000E4B
:106D34000724016E000E0820026E800E0920036EE7
:106D440006AE16D004C007F005C008F006C009F06E
:106D5400071E081E091E072A000E08220922000E1B
:106D64000724046E000E0820056E800E0920066EAE
:106D7400000E011A000E021A800E031A000E041AE5
:106D8400000E051A800E061A0450015C05500258C4
:106D940006500358D8B002D0D8901200D880120000
:106DA400AE0EA0EC33F0D50EA0EC33F0800EA0ECC8
:106DB40033F0A80EA0EC33F01F0EA0EC33F0D30E8A
:106DC400A0EC33F0000EA0EC33F0400EA0EC33F056
:106DD4008D0EA0EC33F0AF0EA0EC33F0200EA0EC3F
:106DE40033F0000EA0EC33F0A10EA0EC33F0C80E8B
:106DF400A0EC33F0DA0EA0EC33F0020EA0EC33F08A
:106E0400810EA0EC33F08F0EA0EC33F0D90EA0EC81
:106E140033F0F10EA0EC33F0DB0EA0EC33F0400EB7
:106E2400A0EC33F0A40EA0EC33F0A60EA0EC33F0EB
:106E3400AF0EA0EC33F0120003C00BF004C00CF052
:106E440001C009F002C00AF009500B5C0A500C584A
:106E5400D8B02DD005500B24076E06500C20086EB8
:106E64000750095C08500A58D8B021D005500B26A9
:106E740006500C220550092606500A220B06D8A0FB
:106E84000C060BC0F6FF0CC0F7FF0906D8A00A06D3
:106E940009C0D9FF0AC0DAFF0800F5CFDFFF0506F5
:106EA400D8A0060605500610D8B41200E7D705503E
:106EB4000610D8B412000BC0F6FF0CC0F7FF09C0CF
:106EC400D9FF0AC0DAFF0800F5CFDFFF0B4A0C2A0E
:106ED400094A0A2A0506D8A00606E9D70AC00EF010
:106EE4000BC00FF00EC001F00FC002F00CC003F095
:106EF4000DC004F00DEC35F001C00EF002C00FF02F
:106F0400084A092A0E500F10D8A4ECD708C0D9FF9C
:106F140009C0DAFF000EDF6E0806D8A009060AC011
:106F240001F00BC002F00CC003F00DC004F07BECC8
:106F340034F00150106E0AC001F00BC002F00CC016
:106F440003F00DC004F00DEC35F001C00AF002C0EE
:106F54000BF0090E106402D0070E1026300E102616
:106F640008C0D9FF09C0DAFF10C0DFFF0806D8A0A7
:106F740009060A500B10D8A4D2D7084A092A1200CD
:106F84001E6E1F0E1E6403D07F0E1E6402D0200EE0
:106F94001E6E000E0D6EFF0E0E6E1E500F6E106AEA
:106FA400D8900F361036D8900F361036D8900F364A
:106FB40010360D500F260E5010229F0E0F241A6EFD
:106FC4007C0E10201B6E400E116E120E016E000E10
:106FD400026E1AC003F01BC004F0000E066E080E09
:106FE400056E1EEC37F0780E7DEC33F0400E72EC3B
:106FF40033F0000E1D6E010E1C6E1DBE06D01D501A
:1070040010E1090E1C5CD8B00CD0110E1C24D96EF2
:10701400000E1D20DA6EDF5072EC33F01C4A1D2A7C
:10702400ECD766EC33F012000450D8B405D001500C
:1070340002100310D8A40CD0000E016E000E026ED4
:10704400000E036E1200042AD89003320232013279
:10705400000E0114066E000E0214076EFE0E0314D9
:10706400086E065007100810D8B40CD0ECD7042AC8
:10707400010E0126000E0222000E0322D8900332D4
:1070840002320132000E0114066E000E0214076E65
:10709400FF0E0314086E065007100810D8B406D06B
:1070A400E6D70406D89001360236033602BE03D072
:1070B400020E0460F6D704A0029ED8900432045055
:1070C40003120550D8A4038E01C001F002C002F0DF
:1070D40003C003F01200000E0A6E08AE0AD0081EA8
:1070E400071E061E056C000E062207220822010E4A
:1070F4000A6E04AE0AD0041E031E021E016C000EAA
:10710400022203220422010E0A1A000E0B6E000E44
:107114000C6E000E0D6E000E0E6E0550061007105C
:107124000810D8B42AD0010E096E06D0D8900536BE
:10713400063607360836092A08AEF8D7D8900B3633
:107144000C360D360E360550015C065002580750B9
:10715400035808500458D8A009D00550015E0650C1
:10716400025A0750035A0850045A0B80D890083228
:10717400073206320532092EE1D70A50D8B408D0B6
:107184000E1E0D1E0C1E0B6C000E0C220D220E2268
:107194000BC001F00CC002F00DC003F00EC004F0EF
:1071A400120015C019F01A6A1B6A1434193601E367
:1071B4001A801950206E2050D8A407D0000E136EE8
:1071C400000E146E000E156E120018C019F01A6A23
:1071D4001B6A1734193601E31A801950216E2150A5
:1071E400D8A407D0000E136E000E146E000E156E98
:1071F4001200000E1D6E000E1E6E000E1F6E21503A
:10720400890F205E15C021F01850211A800E211616
:10721400148EFF0E1316FF0E1416000E1516178E7D
:10722400FF0E1616FF0E1716000E1816180E1C6EFB
:10723400D8901D361E361F361650135C175014583E
:1072440018501558D8A007D01650135E1750145A6A
:107254001850155A1D80D8901336143615361C2E26
:10726400E7D71DC001F01EC002F01FC003F020C00C
:1072740004F021C005F016EC38F001C013F002C090
:1072840014F003C015F012000BC00FF0106A116A5D
:107294000A340F3601E310800F50126E1250D8A436
:1072A40007D0000E096E000E0A6E000E0B6E12005F
:1072B4000EC00FF0106A116A0D340F3601E310800E
:1072C4000F50176E1750D8A407D0000E096E000E89
:1072D4000A6E000E0B6E120017507B0F12260BC0A5
:1072E40017F00E50171A800E17160A8E0D8EFF0E09
:1072F4000C16FF0E0D16000E0E16000E136E000E69
:10730400146E000E156E070E166E09A006D00C50F2
:1073140013260D5014220E501522D8900B320A3227
:107324000932D8900C360D360E36162EEED7090ECD
:10733400166E09A006D00C5013260D5014220E50C0
:107344001522D8900B320A320932D89015321432F1
:107354001332162EEED713C001F014C002F015C07C
:1073640003F012C004F017C005F016EC38F001C0A9
:1073740009F002C00AF003C00BF012001AC01CF09E
:107384001D6A1E6A19341C3601E31D801C50266ECA
:107394002650D8A409D0000E186E000E196E000EE7
:1073A4001A6E000E1B6E1200170E1C6E18C01DF014
:1073B40019C01EF01AC01FF01C28206E04D0D890EB
:1073C4001F321E321D32202EFAD71D50216E198E07
:1073D400FF0E1816FF0E1916000E1A161850226EFC
:1073E4001950236E1A50246E256A8E0E265E26AE20
:1073F40016D02650800A8F0FD8B009D0000E186E10
:10740400000E196E000E1A6E000E1B6E1200D8903C
:107414002532243223322232263EF9D715D0170ED4
:1074240026640FD0000E186E000E196E000E1A6E30
:10743400000E1B6E1200D8902236233624362536D1
:1074440026062650D8A4F7D72150D8B408D0251E34
:10745400241E231E226C000E23222422252222C055
:1074640018F023C019F024C01AF025C01BF0120034
:107474004F0E416E000E426E36AE16D041C0D9FF9B
:1074840042C0DAFF2D0EDF6E414A422A34C001F0B9
:1074940035C002F036C003F0BCEC33F001C034F068
:1074A40002C035F003C036F034C018F035C019F00E
:1074B40036C01AF0C0EC39F018C03DF019C03EF0E7
:1074C4001AC03FF01BC040F034C02EF035C02FF07E
:1074D40036C030F03DC009F03EC00AF03FC00BF0AA
:1074E40040C00CF036EC35F009C031F00AC032F07F
:1074F4000BC033F05BEC34F02EC034F02FC035F009
:1075040030C036F0240E0C6E740E0D6E490E0E6EE5
:1075140034C009F035C00AF036C00BF046EC39F03F
:1075240009C018F00AC019F00BC01AF0C0EC39F009
:1075340018C039F019C03AF01AC03BF01BC03CF037
:1075440041C017F042C018F0D50E196E7F0E1A6EA6
:107554003DC01BF03EC01CF03FC01DF040C01EF0FB
:1075640039C01FF03AC020F03BC021F03CC022F0EB
:10757400A5EC3CF04F0E346E000E356E120024C0A4
:1075840028F0296A2A6A2334283601E329802850FE
:107594002D6E27C028F0296A2A6A2634283601E38A
:1075A400298028502C6E2D50D8B40BD02C502D5C33
:1075B400D8B00ED02D5000082C24286E180E286444
:1075C40007D025C022F026C023F027C024F01200E3
:1075D4002C50D8B40BD02D502C5CD8B00ED02C50DD
:1075E40000082D24286E180E286407D022C022F02B
:1075F40023C023F024C024F01200060E2B6E24BEF8
:107604002B8E27BE2B8C238EFF0E2216FF0E2316E5
:10761400000E2416268EFF0E2516FF0E2616000ECB
:1076240027162C502D5CD8B01BD0D8902536263682
:1076340027362C062D502C18D8B40DD02B062BC071
:1076440028F0070E2816D8B406D0EFD7D8902432E5
:10765400233222322D2A2C502D18D8B41FD0F6D71D
:107664002D502C5CD8B01AD0D8902236233624362C
:107674002D062D502C18D8B40DD02B062BC028F075
:10768400070E2816D8B406D0EFD7D8902732263262
:1076940025322C2A2C502D18D8A4F7D72BAE0CD079
:1076A400FF0E221AFF0E231AFF0E241A010E2226A1
:1076B400000E2322000E24222BAC0CD0FF0E251A20
:1076C400FF0E261AFF0E271A010E2526000E26226B
:1076D400000E2722000E2B6E225025262350262230
:1076E4002450272227AE0ED0FF0E251AFF0E261A8D
:1076F400FF0E271A010E2526000E2622000E272231
:10770400010E2B6E25C001F026C002F027C003F045
:107714002DC004F02BC005F016EC38F001C022F0A7
:1077240002C023F003C024F01200000E2E6E4B0E94
:107734002F6E000E306E000E316E0CEC36F0030E20
:10774400136EE80E126ECEEC33F0F80E026E7F0E5E
:10775400036E97EC35F0030E136EE80E126ECEEC4A
:1077640033F00C0E6CEC33F00D0E6CEC33F0030EB6
:10777400136EE80E126ECEEC33F093EC33F0030E7E
:10778400136EE80E126ECEEC33F0D2EC36F09CECB5
:1077940034F0000E4B6E000E4A6E000E4C6E000E5E
:1077A4004D6E000E4E6E000E046E000E09EC34F0A9
:1077B400AE0E1F6E7F0E206EE4EC34F0030E136EDB
:1077C400E80E126ECEEC33F0000E046E010E09ECDE
:1077D40034F0E00E1F6E7F0E206EE4EC34F0000EE9
:1077E400046E020E09EC34F0EA0E1F6E7F0E206E5A
:1077F400E4EC34F0000E046E030E09EC34F0C80E11
:107804001F6E7F0E206EE4EC34F0030E136EE80E50
:10781400126ECEEC33F09CEC34F0000E136E640E5A
:10782400126ECEEC33F0000E4B6E000E4A6E4BBE61
:1078340006D04B5020E1650E4A5CD8B01CD0000E37
:10784400046E000E09EC34F09F0E1F6E7F0E206E46
:10785400E4EC34F0000E046E020E09EC34F04A50ED
:1078640023EC34F0000E136E640E126ECEEC33F083
:107874004A4A4B2ADCD79CEC34F0000E136E640E9B
:10788400126ECEEC33F0000E4C6E000E4D6E000EF8
:107894004E6E000E016EA00E026E410E036E4CC0C1
:1078A40004F04DC005F04EC006F08AEC36F0D8A0C6
:1078B40041D0000E046E000E09EC34F0BB0E1F6EB6
:1078C4007F0E206EE4EC34F0000E046E020E09EC20
:1078D40034F04CC043F04DC044F04EC045F03EEC93
:1078E40034F0000E136E640E126ECEEC33F04CC006
:1078F40022F04DC023F04EC024F0000E256E000E81
:10790400266E3F0E276EC1EC3AF022C04CF023C025
:107914004DF024C04EF0000E016EA00E026E410E1A
:10792400036E4CC004F04DC005F04EC006F08AEC66
:1079340036F0BDD7000E136E640E126ECEEC33F02B
:107944009CEC34F030D71B0E286E000E296E7ED1CD
:10795400250E3218D8B409D017C0D9FF18C0DAFFE1
:1079640032C0DFFF174A182A71D1000E2F6E000EA5
:107974002E6E000E276E19C0F6FF1AC0F7FF08001E
:10798400F550ADEC33F0D8A032D0000E2F6E000EBF
:107994002E6E2EC001F02FC002F0000E046E0A0EEF
:1079A400036EE0EC33F001C02EF002C02FF0D00ED5
:1079B400236EFF0E246E19C0F6FF1AC0F7FF0800ED
:1079C400F550256E266A235025262450262225505C
:1079D4002E2626502F22194A1A2A19C0F6FF1AC039
:1079E400F7FF0800F550ADEC33F0D8B0D2D719C08A
:1079F400F6FF1AC0F7FF0800F5502E0AD8A42DD0C0
:107A0400194A1A2A000E316E000E306E1BD030C097
:107A140001F031C002F0000E046E0A0E036EE0ECB9
:107A240033F019C0F6FF1AC0F7FF0800F55001261D
:107A3400000E0222D00E0124306EFF0E0220316EA1
:107A4400194A1A2A19C0F6FF1AC0F7FF0800F550A0
:107A5400ADEC33F0D8A00BD0DAD7000E316E000EA7
:107A6400306E05D0278803D0C00E271214D019C059
:107A7400F6FF1AC0F7FF194A1A2A0800F5CF32F0A8
:107A84003250000AD8B4EED06C0AD8B4EBD7190A35
:107A9400D8B4EAD7DBD027A80ED028C0D9FF29C094
:107AA400DAFFDECF2AF0DECF2BF0DECF2CF0DECFF4
:107AB4002DF0040E0FD028C0D9FF29C0DAFFDECF85
:107AC40023F0DDCF24F023C02AF024C02BF02C6A4D
:107AD4002D6A020E2826000E292230503110D8A417
:107AE40008D02A502B102C102D10D8A402D0304AC4
:107AF400312A010E326E0A0E3218D8B418D0325020
:107B0400040D770EF324F66E7C0EF420F76E090054
:107B1400F5502A5C0900F5502B580900F5502C58F3
:107B24000900F5502D58D8A002D0322AE4D7800E8F
:107B340032BE7F0E236E3050325C3150800A23589F
:107B4400D8B003D030C032F010D03150800A236E48
:107B54003250305C800E32BE7F0E2358D8B005D030
:107B64003250306E316A30BE3106800E32BE7F0E26
:107B7400236E2E50325C2F50800A2358D8B007D081
:107B840032502E5E000E32BEFF0E2F5A04D0000E6D
:107B94002F6E000E2E6E2E502F10D8B44FD017C05B
:107BA400D9FF18C0DAFF200EDF6E174A182A2E06F6
:107BB400D8A02F06F0D730C023F031C024F0D890DD
:107BC40023362436D89023362436770E2324F66EB3
:107BD4007C0E2420F76E0900F5CF05F00900F5CFDF
:107BE40006F00900F5CF07F00A00F5CF08F02AC027
:107BF40001F02BC002F02CC003F02DC004F049ECBE
:107C040036F001C00EF002C00FF003C010F004C043
:107C140011F00A0E126E000E136E000E146E000E9A
:107C2400156E64EC35F00E50300F326E17C0D9FF6C
:107C340018C0DAFF32C0DFFF174A182A3006D8A06E
:107C440031063028B8E13128D8A4B5D719C0F6FFD9
:107C54001AC0F7FF194A1A2A0800F5CF32F0325039
:107C6400D8A476D617C0D9FF18C0DAFF000EDF6E8D
:107C7400120000010000000A00000064000000E897
:107C840003000010270000A086010040420F00807E
:107C940096980000E1F50500CA9A3B000000000038
:107CA40000000000005F0000000000000007000763
:107CB40000000000147F147F14000000242A7F2A8F
:107CC40012000000231308646200000036495522A4
:107CD4005000000000050300000000001C224100C9
:107CE4000000000041221C0000000000082A1C2A99
:107CF4000800000008083E0808000000A06000001A
:107D04000000000008080808080000006060000087
:107D14000000000020100804020000003E51494504
:107D24003E00000000427F400000000062514949CB
:107D34004600000022414949360000001814127F11
:107D44001000000027454545390000003C4A4949D8
:107D5400300000000171090503000000364949495B
:107D640036000000064949291E000000003636008E
:107D74000000000000AC6C00000000000814224168
:107D8400000000001414141414000000412214080C
:107D94000000000002015109060000003249794147
:107DA4003E0000007E0909097E0000007F49494920
:107DB400360000003E414141220000007F41412243
:107DC4001C0000007F494949410000007F0909095E
:107DD400010000003E414151720000007F08080884
:107DE4007F000000417F4100000000002040413F2F
:107DF400010000007F081422410000007F40404041
:107E0400400000007F020C027F0000007F04081085
:107E14007F0000003E4141413E0000007F09090906
:107E2400060000003E4151215E0000007F0919292F
:107E340046000000264949493200000001017F0143
:107E4400010000003F4040403F0000001F20402050
:107E54001F0000003F4038403F0000006314081436
:107E640063000000030478040300000061514945E5
:107E7400430000007F41410000000000020408109C
:107E84002000000041417F000000000004020102C4
:107E94000400000080808080800000000102040053
:107EA4000000000020545454780000007F484444EB
:107EB4003800000038444428000000003844444896
:107EC4007F0000003854545418000000087E090252
:107ED4000000000018A4A4A47C0000007F0804048F
:107EE40078000000007D00000000000080847D0018
:107EF400000000007F10284400000000417F400083
:107F0400000000007C041804780000007C08047C55
:107F1400000000003844443800000000FC24241809
:107F240000000000182424FC00000000007C080469
:107F3400000000004854542400000000047F440062
:107F4400000000003C40407C000000001C20402059
:107F54001C0000003C4030403C0000004428102835
:107F6400440000001CA0A07C000000004464544CA9
:107F7400440000000836410000000000007F0000BB
:107F84000000000041360800000000000201010268
:107F94000100000002050502000000496E746567D7
:107FA400657220436F756E743A004F4C45442053FC
:107FB40053443133303600466C6F617420436F751F
:107FC4006E743A0062792041726D7374726F6E67D9
:107FD40000256C752E25362E366C75004E6F2042AA
:107FE400756666657200466F72205843380020201B
:0B7FF40020202000426567696E00003D
:020000040020DA
:08000000FFFFFFFFFFFFFFFF00
:020000040030CA
:0E000000030E3E0EFF8180FF0FC00FC00F40A9
:00000001FF
